{
  "_format": "hh-sol-artifact-1",
  "contractName": "Lottery",
  "sourceName": "contracts/Lottery.sol",
  "abi": [
    {
      "inputs": [],
      "stateMutability": "payable",
      "type": "constructor"
    },
    {
      "inputs": [],
      "name": "Enter",
      "outputs": [],
      "stateMutability": "payable",
      "type": "function"
    },
    {
      "inputs": [],
      "name": "PickWinner",
      "outputs": [],
      "stateMutability": "nonpayable",
      "type": "function"
    },
    {
      "inputs": [],
      "name": "getPlayers",
      "outputs": [
        {
          "internalType": "address payable[]",
          "name": "",
          "type": "address[]"
        }
      ],
      "stateMutability": "view",
      "type": "function"
    },
    {
      "inputs": [],
      "name": "manager",
      "outputs": [
        {
          "internalType": "address",
          "name": "",
          "type": "address"
        }
      ],
      "stateMutability": "view",
      "type": "function"
    },
    {
      "inputs": [
        {
          "internalType": "uint256",
          "name": "",
          "type": "uint256"
        }
      ],
      "name": "players",
      "outputs": [
        {
          "internalType": "address payable",
          "name": "",
          "type": "address"
        }
      ],
      "stateMutability": "view",
      "type": "function"
    }
  ],
  "bytecode": "0x6080604052336000806101000a81548173ffffffffffffffffffffffffffffffffffffffff021916908373ffffffffffffffffffffffffffffffffffffffff1602179055506108f0806100536000396000f3fe60806040526004361061004a5760003560e01c80631097e5791461004f578063481c6a75146100595780638b5b9ccc14610084578063b7d2c654146100af578063f71d96cb146100c6575b600080fd5b610057610103565b005b34801561006557600080fd5b5061006e61017a565b60405161007b9190610665565b60405180910390f35b34801561009057600080fd5b5061009961019e565b6040516100a6919061069b565b60405180910390f35b3480156100bb57600080fd5b506100c461022c565b005b3480156100d257600080fd5b506100ed60048036038101906100e891906104b9565b610388565b6040516100fa9190610680565b60405180910390f35b655af3107a4000341161011557600080fd5b6001339080600181540180825580915050600190039060005260206000200160009091909190916101000a81548173ffffffffffffffffffffffffffffffffffffffff021916908373ffffffffffffffffffffffffffffffffffffffff160217905550565b60008054906101000a900473ffffffffffffffffffffffffffffffffffffffff1681565b6060600180548060200260200160405190810160405280929190818152602001828054801561022257602002820191906000526020600020905b8160009054906101000a900473ffffffffffffffffffffffffffffffffffffffff1673ffffffffffffffffffffffffffffffffffffffff16815260200190600101908083116101d8575b5050505050905090565b60008054906101000a900473ffffffffffffffffffffffffffffffffffffffff1673ffffffffffffffffffffffffffffffffffffffff163373ffffffffffffffffffffffffffffffffffffffff161461028457600080fd5b60006001805490506102946103c7565b61029e91906107c0565b9050600181815481106102b4576102b3610820565b5b9060005260206000200160009054906101000a900473ffffffffffffffffffffffffffffffffffffffff1673ffffffffffffffffffffffffffffffffffffffff166108fc479081150290604051600060405180830381858888f19350505050158015610324573d6000803e3d6000fd5b50600067ffffffffffffffff8111156103405761033f61084f565b5b60405190808252806020026020018201604052801561036e5781602001602082028036833780820191505090505b50600190805190602001906103849291906103fd565b5050565b6001818154811061039857600080fd5b906000526020600020016000915054906101000a900473ffffffffffffffffffffffffffffffffffffffff1681565b6000444260016040516020016103df9392919061062c565b6040516020818303038152906040528051906020012060001c905090565b828054828255906000526020600020908101928215610476579160200282015b828111156104755782518260006101000a81548173ffffffffffffffffffffffffffffffffffffffff021916908373ffffffffffffffffffffffffffffffffffffffff1602179055509160200191906001019061041d565b5b5090506104839190610487565b5090565b5b808211156104a0576000816000905550600101610488565b5090565b6000813590506104b3816108a3565b92915050565b6000602082840312156104cf576104ce610891565b5b60006104dd848285016104a4565b91505092915050565b60006104f28383610516565b60208301905092915050565b600061050a8383610534565b60208301905092915050565b61051f81610760565b82525050565b61052e81610760565b82525050565b61053d81610760565b82525050565b61054c8161074e565b82525050565b600061055d826106e2565b6105678185610712565b9350610572836106bd565b8060005b838110156105a357815161058a88826104e6565b9750610595836106f8565b925050600181019050610576565b5085935050505092915050565b60006105bb826106ed565b6105c58185610723565b93506105d0836106cd565b8060005b83811015610608576105e58261087e565b6105ef88826104fe565b97506105fa83610705565b9250506001810190506105d4565b5085935050505092915050565b61062661062182610792565b6107b6565b82525050565b60006106388286610615565b6020820191506106488285610615565b60208201915061065882846105b0565b9150819050949350505050565b600060208201905061067a6000830184610543565b92915050565b60006020820190506106956000830184610525565b92915050565b600060208201905081810360008301526106b58184610552565b905092915050565b6000819050602082019050919050565b60008190508160005260206000209050919050565b600081519050919050565b600081549050919050565b6000602082019050919050565b6000600182019050919050565b600082825260208201905092915050565b600081905092915050565b600073ffffffffffffffffffffffffffffffffffffffff82169050919050565b600061075982610772565b9050919050565b600061076b82610772565b9050919050565b600073ffffffffffffffffffffffffffffffffffffffff82169050919050565b6000819050919050565b60006107af6107aa83610896565b61072e565b9050919050565b6000819050919050565b60006107cb82610792565b91506107d683610792565b9250826107e6576107e56107f1565b5b828206905092915050565b7f4e487b7100000000000000000000000000000000000000000000000000000000600052601260045260246000fd5b7f4e487b7100000000000000000000000000000000000000000000000000000000600052603260045260246000fd5b7f4e487b7100000000000000000000000000000000000000000000000000000000600052604160045260246000fd5b600061088a825461079c565b9050919050565b600080fd5b60008160001c9050919050565b6108ac81610792565b81146108b757600080fd5b5056fea26469706673582212203a90bdec4afb77824913264ae8d1b2248f44a19ec336a36f027dc574054dd07b64736f6c63430008060033",
  "linkReferences": {},
  "deployedLinkReferences": {}
}